{
  "contractName": "NodeList",
  "abi": [
    {
      "constant": true,
      "inputs": [
        {
          "name": "",
          "type": "uint256"
        },
        {
          "name": "",
          "type": "uint256"
        }
      ],
      "name": "nodeList",
      "outputs": [
        {
          "name": "",
          "type": "address"
        }
      ],
      "payable": false,
      "stateMutability": "view",
      "type": "function"
    },
    {
      "constant": true,
      "inputs": [
        {
          "name": "",
          "type": "address"
        },
        {
          "name": "",
          "type": "uint256"
        }
      ],
      "name": "addressToNodeDetailsLog",
      "outputs": [
        {
          "name": "declaredIp",
          "type": "string"
        },
        {
          "name": "position",
          "type": "uint256"
        },
        {
          "name": "pubKx",
          "type": "uint256"
        },
        {
          "name": "pubKy",
          "type": "uint256"
        },
        {
          "name": "tmP2PListenAddress",
          "type": "string"
        },
        {
          "name": "p2pListenAddress",
          "type": "string"
        }
      ],
      "payable": false,
      "stateMutability": "view",
      "type": "function"
    },
    {
      "constant": false,
      "inputs": [],
      "name": "renounceOwnership",
      "outputs": [],
      "payable": false,
      "stateMutability": "nonpayable",
      "type": "function"
    },
    {
      "constant": true,
      "inputs": [],
      "name": "owner",
      "outputs": [
        {
          "name": "",
          "type": "address"
        }
      ],
      "payable": false,
      "stateMutability": "view",
      "type": "function"
    },
    {
      "constant": true,
      "inputs": [],
      "name": "isOwner",
      "outputs": [
        {
          "name": "",
          "type": "bool"
        }
      ],
      "payable": false,
      "stateMutability": "view",
      "type": "function"
    },
    {
      "constant": false,
      "inputs": [
        {
          "name": "newOwner",
          "type": "address"
        }
      ],
      "name": "transferOwnership",
      "outputs": [],
      "payable": false,
      "stateMutability": "nonpayable",
      "type": "function"
    },
    {
      "inputs": [],
      "payable": false,
      "stateMutability": "nonpayable",
      "type": "constructor"
    },
    {
      "anonymous": false,
      "inputs": [
        {
          "indexed": false,
          "name": "publicKey",
          "type": "address"
        },
        {
          "indexed": false,
          "name": "epoch",
          "type": "uint256"
        },
        {
          "indexed": false,
          "name": "position",
          "type": "uint256"
        }
      ],
      "name": "NodeListed",
      "type": "event"
    },
    {
      "anonymous": false,
      "inputs": [
        {
          "indexed": true,
          "name": "previousOwner",
          "type": "address"
        },
        {
          "indexed": true,
          "name": "newOwner",
          "type": "address"
        }
      ],
      "name": "OwnershipTransferred",
      "type": "event"
    },
    {
      "constant": true,
      "inputs": [
        {
          "name": "epoch",
          "type": "uint256"
        }
      ],
      "name": "viewNodes",
      "outputs": [
        {
          "name": "",
          "type": "address[]"
        },
        {
          "name": "",
          "type": "uint256[]"
        }
      ],
      "payable": false,
      "stateMutability": "view",
      "type": "function"
    },
    {
      "constant": true,
      "inputs": [
        {
          "name": "epoch",
          "type": "uint256"
        }
      ],
      "name": "viewNodeListCount",
      "outputs": [
        {
          "name": "",
          "type": "uint256"
        }
      ],
      "payable": false,
      "stateMutability": "view",
      "type": "function"
    },
    {
      "constant": true,
      "inputs": [],
      "name": "viewLatestEpoch",
      "outputs": [
        {
          "name": "",
          "type": "uint256"
        }
      ],
      "payable": false,
      "stateMutability": "view",
      "type": "function"
    },
    {
      "constant": true,
      "inputs": [
        {
          "name": "epoch",
          "type": "uint256"
        },
        {
          "name": "node",
          "type": "address"
        }
      ],
      "name": "viewNodeDetails",
      "outputs": [
        {
          "name": "declaredIp",
          "type": "string"
        },
        {
          "name": "position",
          "type": "uint256"
        },
        {
          "name": "tmP2PListenAddress",
          "type": "string"
        },
        {
          "name": "p2pListenAddress",
          "type": "string"
        }
      ],
      "payable": false,
      "stateMutability": "view",
      "type": "function"
    },
    {
      "constant": true,
      "inputs": [
        {
          "name": "epoch",
          "type": "uint256"
        },
        {
          "name": "nodeAddress",
          "type": "address"
        }
      ],
      "name": "viewWhitelist",
      "outputs": [
        {
          "name": "",
          "type": "bool"
        }
      ],
      "payable": false,
      "stateMutability": "view",
      "type": "function"
    },
    {
      "constant": false,
      "inputs": [
        {
          "name": "epoch",
          "type": "uint256"
        },
        {
          "name": "nodeAddress",
          "type": "address"
        },
        {
          "name": "allowed",
          "type": "bool"
        }
      ],
      "name": "updateWhitelist",
      "outputs": [],
      "payable": false,
      "stateMutability": "nonpayable",
      "type": "function"
    },
    {
      "constant": false,
      "inputs": [
        {
          "name": "epoch",
          "type": "uint256"
        },
        {
          "name": "declaredIp",
          "type": "string"
        },
        {
          "name": "pubKx",
          "type": "uint256"
        },
        {
          "name": "pubKy",
          "type": "uint256"
        },
        {
          "name": "tmP2PListenAddress",
          "type": "string"
        },
        {
          "name": "p2pListenAddress",
          "type": "string"
        }
      ],
      "name": "listNode",
      "outputs": [],
      "payable": false,
      "stateMutability": "nonpayable",
      "type": "function"
    }
  ],
  "bytecode": "0x6080604052600060045534801561001557600080fd5b50336000806101000a81548173ffffffffffffffffffffffffffffffffffffffff021916908373ffffffffffffffffffffffffffffffffffffffff1602179055506000809054906101000a900473ffffffffffffffffffffffffffffffffffffffff1673ffffffffffffffffffffffffffffffffffffffff16600073ffffffffffffffffffffffffffffffffffffffff167f8be0079c531659141344cd1fd0a4f28419497f9722a3daafe3b4186f6b6457e060405160405180910390a36116dc806100e16000396000f3006080604052600436106100c5576000357c0100000000000000000000000000000000000000000000000000000000900463ffffffff16806302098741146100ca5780630bf1a62e1461014157806313a7cd36146101825780631bcd979d1461024c57806322d1b9db146103ff5780633d4602a914610464578063715018a6146104bd5780638da5cb5b146104d45780638f32d59b1461052b578063a93a0fb01461055a578063bf2d6f81146106ff578063e439c09914610788578063f2fde38b146107b3575b600080fd5b3480156100d657600080fd5b506100ff60048036038101908080359060200190929190803590602001909291905050506107f6565b604051808273ffffffffffffffffffffffffffffffffffffffff1673ffffffffffffffffffffffffffffffffffffffff16815260200191505060405180910390f35b34801561014d57600080fd5b5061016c60048036038101908080359060200190929190505050610843565b6040518082815260200191505060405180910390f35b34801561018e57600080fd5b506101ad60048036038101908080359060200190929190505050610863565b604051808060200180602001838103835285818151815260200191508051906020019060200280838360005b838110156101f45780820151818401526020810190506101d9565b50505050905001838103825284818151815260200191508051906020019060200280838360005b8381101561023657808201518184015260208101905061021b565b5050505090500194505050505060405180910390f35b34801561025857600080fd5b50610297600480360381019080803573ffffffffffffffffffffffffffffffffffffffff16906020019092919080359060200190929190505050610a43565b6040518080602001878152602001868152602001858152602001806020018060200184810384528a818151815260200191508051906020019080838360005b838110156102f15780820151818401526020810190506102d6565b50505050905090810190601f16801561031e5780820380516001836020036101000a031916815260200191505b50848103835286818151815260200191508051906020019080838360005b8381101561035757808201518184015260208101905061033c565b50505050905090810190601f1680156103845780820380516001836020036101000a031916815260200191505b50848103825285818151815260200191508051906020019080838360005b838110156103bd5780820151818401526020810190506103a2565b50505050905090810190601f1680156103ea5780820380516001836020036101000a031916815260200191505b50995050505050505050505060405180910390f35b34801561040b57600080fd5b5061044a60048036038101908080359060200190929190803573ffffffffffffffffffffffffffffffffffffffff169060200190929190505050610c54565b604051808215151515815260200191505060405180910390f35b34801561047057600080fd5b506104bb60048036038101908080359060200190929190803573ffffffffffffffffffffffffffffffffffffffff169060200190929190803515159060200190929190505050610cbc565b005b3480156104c957600080fd5b506104d2610d3c565b005b3480156104e057600080fd5b506104e9610e0e565b604051808273ffffffffffffffffffffffffffffffffffffffff1673ffffffffffffffffffffffffffffffffffffffff16815260200191505060405180910390f35b34801561053757600080fd5b50610540610e37565b604051808215151515815260200191505060405180910390f35b34801561056657600080fd5b506105a560048036038101908080359060200190929190803573ffffffffffffffffffffffffffffffffffffffff169060200190929190505050610e8e565b60405180806020018581526020018060200180602001848103845288818151815260200191508051906020019080838360005b838110156105f35780820151818401526020810190506105d8565b50505050905090810190601f1680156106205780820380516001836020036101000a031916815260200191505b50848103835286818151815260200191508051906020019080838360005b8381101561065957808201518184015260208101905061063e565b50505050905090810190601f1680156106865780820380516001836020036101000a031916815260200191505b50848103825285818151815260200191508051906020019080838360005b838110156106bf5780820151818401526020810190506106a4565b50505050905090810190601f1680156106ec5780820380516001836020036101000a031916815260200191505b5097505050505050505060405180910390f35b34801561070b57600080fd5b506107866004803603810190808035906020019092919080359060200190820180359060200191909192939192939080359060200190929190803590602001909291908035906020019082018035906020019190919293919293908035906020019082018035906020019190919293919293905050506111be565b005b34801561079457600080fd5b5061079d6114e8565b6040518082815260200191505060405180910390f35b3480156107bf57600080fd5b506107f4600480360381019080803573ffffffffffffffffffffffffffffffffffffffff1690602001909291905050506114f2565b005b60036020528160005260406000208181548110151561081157fe5b906000526020600020016000915091509054906101000a900473ffffffffffffffffffffffffffffffffffffffff1681565b600060036000838152602001908152602001600020805490509050919050565b6060806060600060036000868152602001908152602001600020805490506040519080825280602002602001820160405280156108af5781602001602082028038833980820191505090505b509150600090505b600360008681526020019081526020016000208054905081101561099c576002600060036000888152602001908152602001600020838154811015156108f957fe5b9060005260206000200160009054906101000a900473ffffffffffffffffffffffffffffffffffffffff1673ffffffffffffffffffffffffffffffffffffffff1673ffffffffffffffffffffffffffffffffffffffff168152602001908152602001600020600086815260200190815260200160002060010154828281518110151561098157fe5b906020019060200201818152505080806001019150506108b7565b600360008681526020019081526020016000208281805480602002602001604051908101604052809291908181526020018280548015610a3157602002820191906000526020600020905b8160009054906101000a900473ffffffffffffffffffffffffffffffffffffffff1673ffffffffffffffffffffffffffffffffffffffff16815260200190600101908083116109e7575b50505050509150935093505050915091565b600260205281600052604060002060205280600052604060002060009150915050806000018054600181600116156101000203166002900480601f016020809104026020016040519081016040528092919081815260200182805460018160011615610100020316600290048015610afc5780601f10610ad157610100808354040283529160200191610afc565b820191906000526020600020905b815481529060010190602001808311610adf57829003601f168201915b505050505090806001015490806002015490806003015490806004018054600181600116156101000203166002900480601f016020809104026020016040519081016040528092919081815260200182805460018160011615610100020316600290048015610bac5780601f10610b8157610100808354040283529160200191610bac565b820191906000526020600020905b815481529060010190602001808311610b8f57829003601f168201915b505050505090806005018054600181600116156101000203166002900480601f016020809104026020016040519081016040528092919081815260200182805460018160011615610100020316600290048015610c4a5780601f10610c1f57610100808354040283529160200191610c4a565b820191906000526020600020905b815481529060010190602001808311610c2d57829003601f168201915b5050505050905086565b60006001600084815260200190815260200160002060008373ffffffffffffffffffffffffffffffffffffffff1673ffffffffffffffffffffffffffffffffffffffff16815260200190815260200160002060009054906101000a900460ff16905092915050565b610cc4610e37565b1515610ccf57600080fd5b806001600085815260200190815260200160002060008473ffffffffffffffffffffffffffffffffffffffff1673ffffffffffffffffffffffffffffffffffffffff16815260200190815260200160002060006101000a81548160ff021916908315150217905550505050565b610d44610e37565b1515610d4f57600080fd5b600073ffffffffffffffffffffffffffffffffffffffff166000809054906101000a900473ffffffffffffffffffffffffffffffffffffffff1673ffffffffffffffffffffffffffffffffffffffff167f8be0079c531659141344cd1fd0a4f28419497f9722a3daafe3b4186f6b6457e060405160405180910390a360008060006101000a81548173ffffffffffffffffffffffffffffffffffffffff021916908373ffffffffffffffffffffffffffffffffffffffff160217905550565b60008060009054906101000a900473ffffffffffffffffffffffffffffffffffffffff16905090565b60008060009054906101000a900473ffffffffffffffffffffffffffffffffffffffff1673ffffffffffffffffffffffffffffffffffffffff163373ffffffffffffffffffffffffffffffffffffffff1614905090565b60606000606080600260008673ffffffffffffffffffffffffffffffffffffffff1673ffffffffffffffffffffffffffffffffffffffff16815260200190815260200160002060008781526020019081526020016000206000018054600181600116156101000203166002900480601f016020809104026020016040519081016040528092919081815260200182805460018160011615610100020316600290048015610f7c5780601f10610f5157610100808354040283529160200191610f7c565b820191906000526020600020905b815481529060010190602001808311610f5f57829003601f168201915b50505050509350600260008673ffffffffffffffffffffffffffffffffffffffff1673ffffffffffffffffffffffffffffffffffffffff1681526020019081526020016000206000878152602001908152602001600020600101549250600260008673ffffffffffffffffffffffffffffffffffffffff1673ffffffffffffffffffffffffffffffffffffffff16815260200190815260200160002060008781526020019081526020016000206004018054600181600116156101000203166002900480601f0160208091040260200160405190810160405280929190818152602001828054600181600116156101000203166002900480156110c05780601f10611095576101008083540402835291602001916110c0565b820191906000526020600020905b8154815290600101906020018083116110a357829003601f168201915b50505050509150600260008673ffffffffffffffffffffffffffffffffffffffff1673ffffffffffffffffffffffffffffffffffffffff16815260200190815260200160002060008781526020019081526020016000206005018054600181600116156101000203166002900480601f0160208091040260200160405190810160405280929190818152602001828054600181600116156101000203166002900480156111ae5780601f10611183576101008083540402835291602001916111ae565b820191906000526020600020905b81548152906001019060200180831161119157829003601f168201915b5050505050905092959194509250565b886001600082815260200190815260200160002060003373ffffffffffffffffffffffffffffffffffffffff1673ffffffffffffffffffffffffffffffffffffffff16815260200190815260200160002060009054906101000a900460ff16151561122857600080fd5b600360008b81526020019081526020016000203390806001815401808255809150509060018203906000526020600020016000909192909190916101000a81548173ffffffffffffffffffffffffffffffffffffffff021916908373ffffffffffffffffffffffffffffffffffffffff1602179055505060c0604051908101604052808a8a8080601f0160208091040260200160405190810160405280939291908181526020018383808284378201915050505050508152602001600360008d815260200190815260200160002080549050815260200188815260200187815260200186868080601f016020809104026020016040519081016040528093929190818152602001838380828437820191505050505050815260200184848080601f016020809104026020016040519081016040528093929190818152602001838380828437820191505050505050815250600260003373ffffffffffffffffffffffffffffffffffffffff1673ffffffffffffffffffffffffffffffffffffffff16815260200190815260200160002060008c815260200190815260200160002060008201518160000190805190602001906113e592919061160b565b50602082015181600101556040820151816002015560608201518160030155608082015181600401908051906020019061142092919061160b565b5060a082015181600501908051906020019061143d92919061160b565b5090505089600454101561145357896004819055505b7fe2f8adb0f494dc82ccf446c031763ef3762d6396d51664611ed89aac0117339e338b600360008e815260200190815260200160002080549050604051808473ffffffffffffffffffffffffffffffffffffffff1673ffffffffffffffffffffffffffffffffffffffff168152602001838152602001828152602001935050505060405180910390a150505050505050505050565b6000600454905090565b6114fa610e37565b151561150557600080fd5b61150e81611511565b50565b600073ffffffffffffffffffffffffffffffffffffffff168173ffffffffffffffffffffffffffffffffffffffff161415151561154d57600080fd5b8073ffffffffffffffffffffffffffffffffffffffff166000809054906101000a900473ffffffffffffffffffffffffffffffffffffffff1673ffffffffffffffffffffffffffffffffffffffff167f8be0079c531659141344cd1fd0a4f28419497f9722a3daafe3b4186f6b6457e060405160405180910390a3806000806101000a81548173ffffffffffffffffffffffffffffffffffffffff021916908373ffffffffffffffffffffffffffffffffffffffff16021790555050565b828054600181600116156101000203166002900490600052602060002090601f016020900481019282601f1061164c57805160ff191683800117855561167a565b8280016001018555821561167a579182015b8281111561167957825182559160200191906001019061165e565b5b509050611687919061168b565b5090565b6116ad91905b808211156116a9576000816000905550600101611691565b5090565b905600a165627a7a723058209d452b94c6f1983dffadd1c7b221f38be4425e09c98e1468e5622bf5f15014490029",
  "source": "pragma solidity ^0.4.24;\n\n/**\n * @title Ownable\n * @dev The Ownable contract has an owner address, and provides basic authorization control\n * functions, this simplifies the implementation of \"user permissions\".\n */\ncontract Ownable {\n    address private _owner;\n\n    event OwnershipTransferred(address indexed previousOwner, address indexed newOwner);\n\n    /**\n     * @dev The Ownable constructor sets the original `owner` of the contract to the sender\n     * account.\n     */\n    constructor () internal {\n        _owner = msg.sender;\n        emit OwnershipTransferred(address(0), _owner);\n    }\n\n    /**\n     * @return the address of the owner.\n     */\n    function owner() public view returns (address) {\n        return _owner;\n    }\n\n    /**\n     * @dev Throws if called by any account other than the owner.\n     */\n    modifier onlyOwner() {\n        require(isOwner());\n        _;\n    }\n\n    /**\n     * @return true if `msg.sender` is the owner of the contract.\n     */\n    function isOwner() public view returns (bool) {\n        return msg.sender == _owner;\n    }\n\n    /**\n     * @dev Allows the current owner to relinquish control of the contract.\n     * @notice Renouncing to ownership will leave the contract without an owner.\n     * It will not be possible to call the functions with the `onlyOwner`\n     * modifier anymore.\n     */\n    function renounceOwnership() public onlyOwner {\n        emit OwnershipTransferred(_owner, address(0));\n        _owner = address(0);\n    }\n\n    /**\n     * @dev Allows the current owner to transfer control of the contract to a newOwner.\n     * @param newOwner The address to transfer ownership to.\n     */\n    function transferOwnership(address newOwner) public onlyOwner {\n        _transferOwnership(newOwner);\n    }\n\n    /**\n     * @dev Transfers control of the contract to a newOwner.\n     * @param newOwner The address to transfer ownership to.\n     */\n    function _transferOwnership(address newOwner) internal {\n        require(newOwner != address(0));\n        emit OwnershipTransferred(_owner, newOwner);\n        _owner = newOwner;\n    }\n}\n\ncontract NodeList is Ownable {\n  event NodeListed(address publicKey, uint256 epoch, uint256 position);\n\n  struct Details {\n    string declaredIp;\n    uint256 position;\n    uint256 pubKx;\n    uint256 pubKy;\n    string tmP2PListenAddress;\n    string p2pListenAddress;\n  }\n\n  mapping (uint256 => mapping (address => bool)) whitelist;\n\n  mapping (address => mapping (uint256 => Details)) public addressToNodeDetailsLog; //mapping of address => epoch => nodeDetailsLog\n  mapping (uint256 => address[]) public nodeList; // mapping of epoch => list of nodes in epoch\n  uint256 latestEpoch = 0; //count of number of epochs\n\n  constructor() public {\n  }\n\n  //views nodes in the epoch, now requires specified epochs\n  function viewNodes(uint256 epoch) external view  returns (address[], uint256[]) {\n    uint256[] memory positions = new uint256[](nodeList[epoch].length);\n    for (uint256 i = 0; i < nodeList[epoch].length; i++) {\n      positions[i] = addressToNodeDetailsLog[nodeList[epoch][i]][epoch].position;\n    }\n    return (nodeList[epoch], positions);\n  }\n\n  function viewNodeListCount(uint256 epoch) external view returns (uint256) {\n    return nodeList[epoch].length;\n  }\n\n  function viewLatestEpoch() external view returns (uint256) {\n    return latestEpoch;\n  }\n\n  function viewNodeDetails(uint256 epoch, address node) external view  returns (string declaredIp, uint256 position, string tmP2PListenAddress, string p2pListenAddress) {\n    declaredIp = addressToNodeDetailsLog[node][epoch].declaredIp;\n    position = addressToNodeDetailsLog[node][epoch].position;\n    tmP2PListenAddress = addressToNodeDetailsLog[node][epoch].tmP2PListenAddress;\n    p2pListenAddress = addressToNodeDetailsLog[node][epoch].p2pListenAddress;\n  }\n\n  function viewWhitelist(uint256 epoch, address nodeAddress) public view returns (bool) {\n    return whitelist[epoch][nodeAddress];\n  }\n\n  modifier whitelisted(uint256 epoch) {\n    require(whitelist[epoch][msg.sender]);\n    _;\n  }\n\n  function updateWhitelist(uint256 epoch, address nodeAddress, bool allowed) public onlyOwner {\n    whitelist[epoch][nodeAddress] = allowed;\n  }\n\n  function listNode(uint256 epoch, string declaredIp, uint256 pubKx, uint256 pubKy, string tmP2PListenAddress, string p2pListenAddress) external whitelisted(epoch) {\n    nodeList[epoch].push(msg.sender); \n    addressToNodeDetailsLog[msg.sender][epoch] = Details({\n      declaredIp: declaredIp,\n      position: nodeList[epoch].length, //so that Position (or node index) starts from 1\n      pubKx: pubKx,\n      pubKy: pubKy,\n      tmP2PListenAddress: tmP2PListenAddress,\n      p2pListenAddress: p2pListenAddress\n      });\n    //for now latest epoch is simply the highest epoch registered TODO: only we should be able to call this function\n    if (latestEpoch < epoch) {\n      latestEpoch = epoch;\n    }\n    emit NodeListed(msg.sender, epoch, nodeList[epoch].length);\n  }\n}",
  "sourcePath": "/Users/overmorrow/projects/torus/torus-public/solidity/contracts/NodeList.sol",
  "compiler": {
    "name": "solc",
    "version": "0.4.25+commit.59dbf8f1.Emscripten.clang"
  },
  "schemaVersion": "2.0.2",
  "updatedAt": "2019-04-15T08:53:44.058Z"
}